:100000000C943C030C9468130C9441130C946403FB
:100010000C9464030C9464030C94AB090C94640377
:100020000C9464030C9464030C9464030C946403B4
:100030000C9464030C9464030C9464030C946403A4
:100040000C94F7120C9464030C94B5130C948F1356
:100050000C9464030C9464030C9464030C94640384
:100060000C9464030C94640300407A10F35A00A0CB
:10007000724E18090010A5D4E80000E87648170071
:1000800000E40B54020000CA9A3B000000E1F505B1
:10009000000080969800000040420F000000A086FB
:1000A00001000000102700000000E803000000002D
:1000B0006400000000000A000000000001000000D1
:1000C00000002C76D888DC674F0823DFC1DFAE59EB
:1000D000E1B1B796E5E3E453C63AE651997696E87E
:1000E000E6C28426EB898C9B62ED407C6FFCEFBC02
:1000F0009C9F40F2BAA56FA5F490055A2AF75C932D
:100100006B6CF9676DC11BFCE0E40D47FEF520E662
:10011000B500D0ED902E0300943577050080841E45
:10012000080000204E0A000000C80C333333330FA0
:10013000986E12831141EF8D2114893BE65516CF3D
:10014000FEE6DB18D1844B381BF77C1D901DA4BB49
:10015000E424203284725E228100C9F124ECA1E5FE
:100160003D2754534D3A494E49540A002154534DAA
:100170003A494E49543A545350204641494C0A009A
:1001800054534D3A494E49543A545350204F4B0A18
:100190000054534D3A465041520A002154534D3AAF
:1001A000465041523A4E4F205245504C590A002178
:1001B00054534D3A465041523A4641494C0A005434
:1001C000534D3A465041523A4F4B0A0054534D3A20
:1001D00049443A5245510A0054534D3A49440A00A1
:1001E0002154534D3A49443A4641494C0A0054532C
:1001F0004D3A49443A4F4B0A0054534D3A55504CEE
:100200000A002154534D3A55504C3A4641494C0A44
:100210000054534D3A55504C3A444757432C4F3DA8
:1002200025642C4E3D25640A0054534D3A55504CDC
:100230003A4F4B0A0054534D3A52454144593A49BA
:10024000443D25642C5041523D25642C4449533D86
:1002500025640A002154534D3A52454144593A55B8
:10026000504C204641494C2C534E500A0054534D9B
:100270003A4641494C3A5044540A0054534D3A4688
:1002800041494C3A434E543D25640A0054534D3A7B
:100290004641494C3A52452D494E49540A0054535F
:1002A000463A5349443A4F4B2C49443D25640A0091
:1002B000215453463A5349443A4641494C2C494407
:1002C0003D25640A0025735453463A4D53473A532B
:1002D000454E442C25642D25642D25642D25642C44
:1002E000733D25642C633D25642C743D25642C707E
:1002F000743D25642C6C3D25642C73673D25642C6E
:1003000066743D25642C73743D25733A25730A0089
:10031000215453463A5254453A256420554E4B4E8B
:100320004F574E0A00215453463A5254453A4650CC
:100330004152204143544956450A00215453463AFC
:10034000534E443A544E520A004D434F3A52454799
:100350003A5245510A005453463A5755523A4D5372
:100360003D256C750A004D434F3A42474E3A494E7F
:100370004954204F4B2C5453503D25640A004D43A3
:100380004F3A42474E3A5354500A004D434F3A4277
:10039000474E3A4246520A004D434F3A42474E3A80
:1003A000494E49542052455045415445522C4350E2
:1003B0003D524E4E52412D2D2C5645523D322E313E
:1003C0002E310A005453463A4352543A4F4B0A00D6
:1003D0004D434F3A50494D3A524F555445204E3DAA
:1003E00025642C523D25640A004D434F3A50494D37
:1003F0003A4E4F4445205245473D25640A00545328
:10040000463A504E473A53454E442C544F3D25648E
:100410000A00215453463A504E473A4143544956F4
:10042000450A005453463A434B553A4641494C0A13
:10043000005453463A434B553A444757432C4F3D9B
:1004400025642C4E3D25640A005453463A434B55CF
:100450003A4F4B0A005453463A434B553A4F4B2CB4
:10046000464354524C0A005453463A4D53473A526D
:10047000454C2050784E472C48503D25640A005486
:1004800053463A4D53473A52454C204D53470A0084
:100490005453463A4D53473A465744204243204D21
:1004A00053470A00215453463A4D53473A47574C55
:1004B000204641494C0A005453463A4D53473A4767
:1004C000574C204F4B0A005453463A4D53473A4637
:1004D000504152205245512C49443D25640A005454
:1004E00053463A4D53473A42430A005453463A4D15
:1004F00053473A41434B0A00215453463A4D534720
:100500003A504F4E4720524543562C494E41435492
:100510004956450A005453463A4D53473A504F4EB8
:100520004720524543562C48503D25640A005453F9
:10053000463A4D53473A50494E4745442C49443D6D
:1005400025642C48503D25640A00215453463A4DF9
:1005500053473A4650415220494E4143544956452B
:100560000A005453463A4D53473A46504152204FA1
:100570004B2C49443D25642C443D25640A005453CA
:10058000463A4D53473A41434B205245510A0021C8
:100590005453463A4D53473A505645522C25643DE4
:1005A00025640A00215453463A4D53473A4C454E70
:1005B0002C2564213D25640A005453463A4D534787
:1005C0003A524541442C25642D25642D25642C7315
:1005D0003D25642C633D25642C743D25642C70748A
:1005E0003D25642C6C3D25642C73673D25643A25BC
:1005F000730A00215453463A53414E3A4641494CFE
:100600000A005453463A53414E3A4F4B0A000000F9
:1006100000080002010000030407000000000000C1
:100620000000214D434F3A534E443A4E4F4445202B
:100630004E4F54205245470A000000000025002874
:10064000002B0000000000240027002A00040404FE
:10065000040404040402020202020203030303036B
:100660000301020408102040800102040810200148
:10067000020408102000C01411241FBECFEFD8E0E0
:10068000DEBFCDBF11E0A0E0B1E0ECE4F7E302C0D3
:1006900005900D92AA39B107D9F722E0AAE9B1E095
:1006A00001C01D92A33FB207E1F713E0CCE3D3E012
:1006B00004C02197FE010E948A1BCB33D107C9F7E2
:1006C0000E94FC130C94A41B0C940000FC01838179
:1006D00087708860838384818F718062848367835D
:1006E000CF0108950E94DF1086E00E9407118EE975
:1006F00091E00E94071B682F86E00E942F128EE96E
:1007000091E00E94071B682F83E892E00E94660335
:100710000E94161287E391E00E94C3118EE991E0D6
:100720000E94071B682F70E080E090E04AE00E9482
:10073000D51181E591E00C94C3110F931F93CF93D2
:10074000DF93EC016115710561F0FB010190002060
:10075000E9F73197E61BF70BE931F10518F0E9E10C
:1007600001C0E0E00E2F10E0C80123E0880F991FC0
:100770002A95E1F79B819770892B8B838C818F71F0
:100780008C83EE2329F0A801CE0107960E94951BC9
:10079000FE01E00FF11F1782CE01DF91CF911F9173
:1007A0000F910895FC012481229526952770213010
:1007B00011F487810895211104C007960E941F1526
:1007C000089580E0089591E59CBD91E09DBD2A9833
:1007D000E3E2F0E03197F1F78EBD00000DB407FEC3
:1007E000FDCF8EB5FB019FEF4150C8F0222361F091
:1007F0009EBD00000DB407FEFDCF8EB561157105DD
:1008000099F380833196F0CFDF01119680818EBD00
:1008100000000DB407FEFDCF8EB5FD01E5CF2A9A8D
:10082000E3E2F0E03197F1F70895CF9321E041E062
:1008300060E070E086E00E94E303C82F21E041E021
:1008400060E070E085E00E94E30321E08C3409F071
:1008500020E081E0C73209F080E08223CF91089543
:10086000CF93DF931F92CDB7DEB7698320E041E0DD
:10087000BE016F5F7F4F0E94E3030F90DF91CF9126
:1008800008956FE080E20E943004609118016F3F8C
:1008900019F08AE20E943004299A089520E040E08D
:1008A00060E070E00C94E303E0919D01F0919E0103
:1008B0000280F381E02D309709F009958091A7011E
:1008C00084FD0C94190A08950F931F930E94B5128A
:1008D00000919F011091A0012091A1013091A201EE
:1008E000601B710B820B930B1F910F9108959C015C
:1008F00080919D0190919E018217930751F09091F4
:10090000A7019F719093A70130939E0120939D01B1
:1009100005C08091A701805E8093A701E0919D01B1
:10092000F0919E010190F081E02D309709F009953A
:100930000E94B51260939F017093A0018093A10162
:100940009093A2010895EF92FF920F931F93CF937C
:10095000DF93CDB7DEB7C857D1090FB6F894DEBF25
:100960000FBECDBF8E010F571F4FF801E190F190E0
:100970008F010E94B5124AE00E94D5118FE491E0E8
:100980000E94C3119801A70168E770E0CE010196AB
:100990000E94D715CE0101960E94C31186EE91E008
:1009A0000E94A210C858DF4F0FB6F894DEBF0FBEEA
:1009B000CDBFDF91CF911F910F91FF90EF900895E0
:1009C0008F929F92AF92BF92CF92DF92EF92FF925F
:1009D0000F931F93CF93DF938C01DC011296CC9180
:1009E0008091A70180FF0CC0CF3F51F185E293E0D9
:1009F0009F938F930E94A3040F900F90D0E0F8C0B4
:100A0000C11103C0C091E4011BC0CF3FC9F08C2FBE
:100A100090E003960E94071B8F3F89F41F92CF93AB
:100A200080E193E09F938F930E94A3048091E4015F
:100A30000F900F900F900F90F80190819813C82F8E
:100A40008091E301D8018C9313964C9142FD06C02E
:100A5000469546954695D7E0D40F01C0D0E280E098
:100A600090E0892B21F080E090E00E94000029981E
:100A700083E092E00197F1F76EE080E20E9430049B
:100A80008BE891E00197F1F76C2F8AE20E94300425
:100A90006C2F80E30E94300481EE0E944E04CF3F11
:100AA00011F080EA01C080EB4D2FD13208F040E216
:100AB00020E0B8010E94E303299AE12CF12C8FEF8A
:100AC0000E944E04D82F807321F4B1E0EB1AF10894
:100AD000B1F7299860E387E20E943004D4FF03C095
:100AE00081EE0E944E040E944104D5FBDD27D0F91F
:100AF00081E0CF3F09F080E0D82BC8010E94261189
:100B0000D11103C0E7E5F1E002C0E4E5F1E0609156
:100B1000A8016F70D80113962C91139722FBAA2479
:100B2000A0F8322F36953695369514962C91149759
:100B3000B22EB294B69447E0B4221596CC90159795
:100B400027701696DC9016971296EC9012978C2EC2
:100B5000912CFC9011967C91D11103C04CE551E091
:100B600002C043E551E09F938F93FF93EF931F9251
:100B70006F931F92AF921F923F931F92BF921F924B
:100B8000CF921F922F931F92DF921F92EF929F920C
:100B90008F921F92FF921F927F935F934F9385ECEA
:100BA00092E09F938F930E94A304EDB7FEB77E96C9
:100BB0000FB6F894FEBF0FBEEDBF8091E401C813DD
:100BC00017C0D11110C080E090E0892B21F085E69C
:100BD00090E00E9400008091A80191E0980F9F7022
:100BE000807F892B03C08091A801807F8093A8011A
:100BF0008D2FDF91CF911F910F91FF90EF90DF909C
:100C0000CF90BF90AF909F908F9008952091A701B3
:100C100022FD0C94E0048BE393E09F938F930E945A
:100C2000A3040F900F9080E008950C940606CF93D4
:100C300080E090E0892B21F08CE090E00E940000A1
:100C40002FE043E06FEF80E00E94D01063E571E099
:100C50000E949D038091A702877080618093A70204
:100C60008091A8028F71806C8093A80281E08093AC
:100C7000AB021092AC0284EA92E00E9406068FE07A
:100C80000E94C11222E140E06FEF80E00E94D0108C
:100C90006EE571E00E949D030E940606C091E4018A
:100CA00026E043E06FEF80E00E94D0106C2F0E949E
:100CB00066030E94150686E00E94C112CF910C9433
:100CC000B609CF938091AF0181FD2FC00E94170616
:100CD00089E493E09F938F930E94A3040F900F9059
:100CE00080E090E0892B21F089E090E00E940000F4
:100CF0008091AF0181608093AF01C4E02AE143E0BD
:100D00006FEF80E00E94D01062E00E9466030E94B4
:100D100015068BE10E94C112811102C0C15071F70A
:100D20008091AF0182608093AF01CF910895CF93FE
:100D3000C82F8FEF8C0F8E3F08F5C093E301C0934F
:100D4000180163E082E20E94300461E081E20E94C7
:100D500030040E9441046C2F80E090E00E941F1B31
:100D60001F92CF938EE992E09F938F930E94A304EA
:100D70000F900F900F900F9081E018C01F92CF93AB
:100D800080EB92E09F938F930E94A3040F900F90AB
:100D90000F900F9080E090E0892B21F08EE690E09C
:100DA0000E9400008FEF8093E30180E0CF910895CF
:100DB0000F931F930E9464042091A801207720378D
:100DC00029F000E117E220E030E004C000E61AEE6E
:100DD00020E030E0061717072807390770F48CE881
:100DE00092E09F938F930E94A3040F900F9089E14C
:100DF00091E01F910F910C9477041F910F9108952A
:100E00008091A801982F9077903759F0982F92955C
:100E10009F709F5F97709295907F8F78892B8093BA
:100E2000A8018091A801829587701F928F938BE70C
:100E300092E09F938F930E94A3048091A7018B7FE0
:100E40008F7E8093A7010F900F900F900F9080E0FE
:100E500090E0892B21F087E690E00E9400008DE66B
:100E600092E09F938F930E94A30429980F900F9074
:100E70006CE080E20C9430048091A8018F708B307C
:100E800060F084E592E09F938F930E94A3040F90FB
:100E90000F9084E191E00C94770408958091E5012E
:100EA0001F928F938091E4011F928F938091E301B1
:100EB0001F928F9385E392E09F938F930E94A304E8
:100EC0008091A70184608093A7018091A801807818
:100ED0008093A801E0919B01F0919C018DB79EB792
:100EE00008960FB6F8949EBF0FBE8DBF309709F0DD
:100EF000099408958091A9018F3F79F10E94B5125C
:100F00006093A3017093A4018093A5019093A6011F
:100F100089E292E09F938F930E94A3049091A9018C
:100F20008091E5010F900F909817A1F01F929F9369
:100F30001F928F9381E192E09F938F930E94A3046D
:100F40008091A9018093E5010F900F900F900F9071
:100F50000F900F9080E191E025C00E946404613DF4
:100F600077408105910500F18091A701803618F442
:100F70008CE091E017C082E092E09F938F930E94F3
:100F8000A3048091A701877F8093A7010F900F9002
:100F900080E090E0892B21F08AE690E00E9400003A
:100FA00084E191E00C947704089589EF91E09F9398
:100FB0008F930E94A3040F900F9080E090E0892B04
:100FC00021F088E090E00E9400008FEF8093A9015B
:100FD0008091A70188608093A70128E143E06FEF2B
:100FE00080E00E94D01061E00E9466030C94E0044F
:100FF0008091E3018F3F99F08EEE91E09F938F9364
:101000000E94A3040F900F9080E090E0892B21F0C4
:1010100087E090E00E9400008CE091E020C00E94F8
:101020006404613D774081059105D8F08091A70166
:10103000803618F488E091E012C080EE91E09F9332
:101040008F930E94A3040F900F9080E090E0892B73
:1010500021F089E690E00E9400008DE191E00C947F
:101060007704089588ED91E09F938F930E94A304E5
:101070000F900F908091E3018F3FE1F480E090E0CA
:10108000892B21F086E090E00E9400008CEC91E03A
:101090009F938F930E94A30423E043E06FEF80E0CF
:1010A0000E94D01063E571E00E949D030F900F90A5
:1010B0000C94E00408950E946404613D774081052A
:1010C000910520F48091A70181FF08958091E401AA
:1010D0008F3FC1F08FEB91E09F938F930E94A30409
:1010E0008091A7018E7F8093A7010F900F9080E0E1
:1010F00090E0892B21F085E090E00E94000088E0DC
:1011000091E021C08091A701803658F48BE991E0ED
:101110009F938F930E94A3040F900F9084E191E01E
:1011200012C08FEA91E09F938F930E94A3040F90C7
:101130000F9080E090E0892B21F088E690E00E94FB
:1011400000008DE191E00C94770481E991E09F9398
:101150008F930E94A3040F900F9080E090E0892B62
:1011600021F084E090E00E9400008091A701897F37
:1011700081608093A7018FEF8093E5018093E40164
:1011800027E043E06FEF0E94D01063E571E00E941A
:101190009D030C94E004CF93219A229ACFB7F89440
:1011A00080919A01811124C0E7E5F6E08491EBE695
:1011B000F6E09491E82FF0E0EE0FFF1FED5BF94FA2
:1011C000A591B491EC91E92321F461E08AE00E94B9
:1011D0002F128AE00E9407118CB580618CBD8CB5FE
:1011E00080648CBD8DE00E9407118BE00E94071186
:1011F00080919A018F5F80939A01CFBF29982A9A94
:101200006EE080E20E94300465E070E080E090E0F3
:101210000E947B1263E083E20E9430046FE584E267
:101220000E9430046CE485E20E94300467E286E2AA
:101230000E94300463E780E50E94300466E08DE39D
:101240000E9430040E941504882309F446C062E01D
:1012500082E20E94300460E081E20E94300463E098
:101260008CE30E9430048FEF8093030120E045E07F
:1012700063E071E08BE20E94E30320E045E063E07D
:1012800071E08AE20E94E30320E045E063E071E060
:1012900080E30E94E30382EE0E944E0481EE0E94EE
:1012A0004E0460E787E20E94300480E891E09F935B
:1012B0008F930E94A3048091A70180618093A7016E
:1012C0008091E3010F900F908F3FC1F00E9497062D
:1012D000811114C08DE191E013C08CE691E09F93E1
:1012E0008F930E94A3040F900F9080E090E0892BD1
:1012F00089F387E690E00E940000ECCF84E191E062
:10130000CF910C94770482E691E09F938F930E9493
:10131000A304E7EAF1E08081877F8F7E80831092CB
:10132000A3011092A4011092A5011092A6010E949F
:10133000B5126093AA017093AB018093AC019093B6
:10134000AD010F900F9043E050E060E070E083EE5D
:1013500091E00C94F71A1F920F920FB60F9211247E
:101360000F900FBE0F901F90189508952BE043E04B
:101370006FEF80E00E94D01064E671E00E949D0350
:101380000E9406062CE043E06FEF80E00E94D01040
:1013900063E871E00E949D030E94060623E040E09E
:1013A00061E080E00E94D01063E571E00E949D033F
:1013B0000C940606CF93FC0125812230C1F52681CD
:1013C0002130A9F50E94D203C1E0811101C0C0E023
:1013D0006C2F86E00E942F128091860287708860B1
:1013E00080938602809187028F718062809387024A
:1013F000C0938A0283E892E00E9416126C2F8EE955
:1014000091E00E941F1B87E891E00E94C3118EE9C2
:1014100091E00E94071B682F70E080E090E04AE0B6
:101420000E94D51181E591E0CF910C94C311CF9129
:1014300008952F923F924F925F926F927F928F9278
:101440009F92AF92BF92CF92DF92EF92FF920F9353
:101450001F93CF93DF93CDB7DEB727970FB6F894DE
:10146000DEBF0FBECDBF0E94B5120091AA01109140
:10147000AB012091AC013091AD01DC01CB01801BAF
:10148000910BA20BB30B813A9B4BAD40B105D0F051
:101490000E94B5126093AA017093AB018093AC01D6
:1014A0009093AD010E94150481111EC083EF95E059
:1014B0009F938F930E94A3048DE191E00E94770493
:1014C0000F900F9036E0E32E40E0C42E40E0D42E83
:1014D000CE0101969C838B8354EB452E5BE2552E07
:1014E00051E1652E712C97C082E096E09F938F9317
:1014F0000E94A304E5CFEA94EE2009F406C5C114C6
:10150000D10421F081E090E00E94000021E041E060
:1015100060E070E080E60E94E303F82E90E2981706
:1015200020F482EE0E944E04F12C21E04F2D65EC58
:1015300072E081E60E94E30360E487E20E943004E7
:101540008091C802282F2695269526952A3108F0E5
:1015500029E182FD6AC047E0420F8091C90287708D
:101560008D830091CA021091C6023090C50220906E
:10157000C70285EC92E02E834F830E9426112E81B4
:10158000A22EB12C812E912C9F938F938091C80213
:1015900082FB882780F91F928F931F922F9380914F
:1015A000C9028295869587701F928F931F920F9321
:1015B0001F923D813F938091CB021F928F931F9288
:1015C0002F921F923F921F921F93A9EBB5E0BF93FA
:1015D000AF930E94A3040FB6F894DEBF0FBECDBF39
:1015E0004F81F41621F1C114D10429F08CE690E06A
:1015F0000E9400004F811F924F931F92FF9284EA36
:1016000095E09F938F930E94A3040F900F900F90EB
:101610000F900F900F9021E041E060E070E087E1D3
:101620000E94E30380FD71C466CF40E296CF8091B3
:10163000C8028370823091F0C114D10421F08DE68C
:1016400090E00E9400001F9282E08F938091C80278
:1016500083701F928F938FE895E0D3CF8091E40140
:10166000381649F08091E301181729F0632DC40161
:1016700003960E941F1B8091A80180688093A80197
:101680008091E301281256C02091C802822F8695CE
:10169000869586958A3108F089E138E0839FC001FC
:1016A00011242770822B8093C802F501EB53FD4F64
:1016B00017828091C90283FF21C08EE795E09F9336
:1016C0008F930E94A30481E2E5ECF2E0A4EAB2E089
:1016D00001900D928A95E1F78091A802877F806141
:1016E0008093A8028091E3018093A5021093A60243
:1016F00084EA92E00E9406060F900F909091C90232
:1017000094FD0BC03D81333081F48091CA0221EFFA
:10171000280F233008F0AFC07ECF8BEE94E09F936C
:101720008F930E94A3040F900F9085EC92E00E948B
:10173000DA0971CF2FEF22126DC0AFEDB4E0BF9385
:10174000AF930E94A3040F900F903D81333009F0B6
:1017500053C08091A70182FF32C0073081F580918C
:10176000E401181709F457CF1F921F93A7ECB4E0B8
:10177000BF93AF930E94A3040E94B5128090A3016F
:101780009090A401A090A501B090A601DC01CB012E
:1017900088199909AA09BB090F900F900F900F9013
:1017A00080319742A105B10508F0CEC285E594E0ED
:1017B0009F938F930E94A3040F900F9065C30830EE
:1017C00009F429CF0431C1F48091E401381214C026
:1017D0000E94B5127370882799270E947B1200918E
:1017E000E40125E143E06FEF812F0E94D010602FCC
:1017F0000E9466030E94E0048091E40138120BCF3E
:101800008091E301181709F47BC38091A70182FD41
:1018100062C376C38091A70182FFFDCEAFE7B4E03B
:10182000BF93AF930E94A3040F900F903D8133307C
:10183000E9F408510230D0F485EC92E00E94D20322
:101840008E3FA1F01F928F93A7E6B4E0BF93AF93B2
:101850008E830E94A3048E8161E0680F85EC92E084
:101860000E9466030F900F900F900F9085EC92E00E
:101870000E94E004D0CE043039F485EC92E00E945E
:10188000D2030E949706C7CE083021F50091A70128
:1018900000FF1DC085EC92E00E94D2038F3F09F447
:1018A000BACE8F5F8F3F09F4B6CE9091E5018917CC
:1018B00008F0B1CE01FDAFCE8093E5011093E401B5
:1018C0001F928F931F921F9382E695E09ACE8AE42F
:1018D00095E032C00831D1F485EC92E00E94D20349
:1018E0001F928F931F921F938EE295E09F938F9389
:1018F0000E94A30429E143E06FEF812F0E94D010E2
:1019000061E00E9466030E94E0047FCE0931C9F4C1
:101910008091A70183FF0EC0877F8093A70185EC8C
:1019200092E00E94D2038093A9011F928F9385E1D8
:1019300095E03EC088EF94E09F938F930E94A304AC
:10194000C7C22091C6022111FBC18D3099F480E0FD
:1019500090E0892B21F08BE090E00E94000098E05D
:1019600088E10FB6F894A895809360000FBE90931D
:101970006000FFCF8B3109F585EC92E00E94D20325
:1019800091E0811101C090E08091AF0190FB80F95E
:101990008093AF01C114D10421F08AE090E00E944D
:1019A00000008091AF0181701F928F9389EE93E0C8
:1019B0009F938F930E94A304F3C1863099F4909172
:1019C000CC0281E0992319F09D3409F080E08093E6
:1019D000AE0141E050E063E071E08EEA91E00E94E8
:1019E0000F1B19CE833119F40E94170614CE8231D1
:1019F000D9F40E9464044B015C0126E143E06FEFDF
:101A000080E00E94D010FC0184818F71806A848301
:101A1000838187708062838387829086A186B28665
:101A2000CF010E940606F7CD813001F520E030E0BD
:101A3000232B09F4F0CD929596959770953049F443
:101A40006091CC027091CD028091CE029091CF0234
:101A50000AC0911105C08CEC92E00E943D1503C0B4
:101A600060E070E0CB010E940000D5CD8A3059F5CE
:101A70008091CC02833409F0CECDC114D10421F081
:101A80008DE090E00E94000003E010E06FEFC801DD
:101A90000E941F1B0F5F1F4F033081E01807B1F733
:101AA00084EC93E09F938F930E94A3042AE043E089
:101AB0006FEF80E00E94D01064E571E00E949D030A
:101AC0000E94150605C28C3109F02FCE8091CC0200
:101AD000823509F04AC000E010E0C80103960E9478
:101AE000071BF82E9FEF891307C00F5F1F4F0115CB
:101AF000A1E01A0791F78FCD1F928F931F930F9339
:101B0000A0EDB3E0BF93AF930E94A3042CE143E0A8
:101B10006FEF80E00E94D010FC01838187708061AC
:101B2000838384818F71806C84830783F086CF01E7
:101B30000E9415060E94B5124B015C010F900F9098
:101B40000F900F900F900F900E94B512DC01CB0107
:101B500088199909AA09BB09883C9105A105B10515
:101B600020F6A8950E945404EFCF863599F58EE4AF
:101B700080937C0066E470E080E090E00E947B123D
:101B800080917A00806480937A0080917A0086FD4B
:101B9000FCCFA0907800B09079002CE143E06FEF8B
:101BA00080E00E94D0108C01DC0114968C91149777
:101BB0008F71806614968C93149713968C9113975B
:101BC0008770806113968C93950140E050E0C301CB
:101BD000B2015DC0863409F063C0F8948FEF86BB14
:101BE0001092850010928400109280001092820062
:101BF000909160002DE088E10FB6F894A89580934D
:101C000060000FBE2093600080916000806480932C
:101C10006000A89585E0809381008091600087FF37
:101C2000FCCF10928100A89580916000886180931C
:101C30006000909360007894A0908400B09085003C
:101C40002CE143E06FEF80E00E94D0108C01DC01BA
:101C500014968C9114978F71806614968C931497B8
:101C600013968C9113978770806113968C93C5019E
:101C7000A0E0B0E0BC01CD012BE0660F771F881F0C
:101C8000991F2A95D1F720EA36E841E050E00E94FA
:101C9000681BF80130872783C8010E941506BBCC5A
:101CA0008D3401F50091EF021091F002011511053C
:101CB00011F403EF12E02CE143E06FEF80E00E94AB
:101CC000D010FC0184818F7180668483838187704A
:101CD000806183838B819C81801B910B908787839C
:101CE000CF01DBCF853409F096CC2CE143E06FEFD8
:101CF00080E00E94D01064E571E00E949D030E9484
:101D0000150600E010E06FEFC8010E941F1B0F5F77
:101D10001F4F0D39F1E01F07B1F780E090E0892BEC
:101D200021F08BE090E00E94000098E088E10FB67F
:101D3000F894A895809360000FBE90936000FFCF49
:101D40008A3109F0F2CC67CC8091A70183FD57C09E
:101D50001F921F928EEF93E09F938F930E94A30494
:101D60000F900F900F900F908091E30181111DC093
:101D70001092A9018091A701877F8093A70100910C
:101D8000A9010F3F09F044C083E294E09F938F9331
:101D90000E94A30484EA94E09F938F930E94A3047B
:101DA0000F900F900F900F9036CC8091A701886014
:101DB0008093A7012092A90128E143E06FEF80E022
:101DC0000E94D01061E00E9466030E94E0040E941D
:101DD000B5124B015C011092CA0200E00E94B512DC
:101DE000DC01CB0188199909AA09BB09803D9740FC
:101DF000A105B10508F0BECF002399F1BBCF82E168
:101E000094E09F938F930E94A3040F900F90BCCFF8
:101E10000E94B5126093A3017093A4018093A50161
:101E20009093A60189E494E09F938F930E94A3046A
:101E30008091E5010F900F90081731F11F920F93D9
:101E40001F928F9381E394E09F938F930E94A3044A
:101E50000093E5010F900F900F900F900F900F904F
:101E600013C08091A70184FD0E94190AA895809152
:101E7000C9028770833009F0B1CF01E08091CA02B6
:101E8000893109F0AACFAACF0E94B5126093A301AD
:101E90007093A4018093A5019093A60187EB94E031
:101EA0009F938F930E94A3040E94B512737088279A
:101EB00099270E947B120091E50128E043E06FEF33
:101EC000812F0E94D010602F0E9466030E94E004C0
:101ED0000F900F90A0CBA0E9B4E0BF93AF930E9406
:101EE000A30485EC92E00E94E0040F900F903D81E6
:101EF000333009F490CB8091E40138128CCB15CCAF
:101F00003D81333009F011CC86CB27960FB6F8947B
:101F1000DEBF0FBECDBFDF91CF911F910F91FF901C
:101F2000EF90DF90CF90BF90AF909F908F907F9079
:101F30006F905F904F903F902F9008953FB7F89427
:101F40008091EB029091EC02A091ED02B091EE0233
:101F500026B5A89B05C02F3F19F00196A11DB11D04
:101F60003FBFBA2FA92F982F8827820F911DA11D3F
:101F7000B11DBC01CD0142E0660F771F881F991F7C
:101F80004A95D1F708950895CF92DF92EF92FF928C
:101F90000F931F93CF93DF936C017A018B01C0E005
:101FA000D0E0CE15DF0589F0D8016D918D01D60105
:101FB000ED91FC910190F081E02DC6010995892BEE
:101FC00011F47E0102C02196ECCFC701DF91CF91C1
:101FD0001F910F91FF90EF90DF90CF90089508959B
:101FE00080E090E00895FC01538D448D252F30E072
:101FF000842F90E0821B930B541710F0CF96089516
:1020000001970895FC01918D828D981761F0828D62
:10201000DF01A80FB11D5D968C91928D9F5F9F731C
:10202000928F90E008958FEF9FEF0895FC01918DBE
:10203000828D981731F0828DE80FF11D858D90E02B
:1020400008958FEF9FEF0895FC01918D228D892FC8
:1020500090E0805C9F4F821B91098F7399270895B0
:1020600086EE91E00E94241021E0892B09F420E003
:10207000822F0895FC01848DDF01A80FB11DA35AA2
:10208000BF4F2C91848D90E001968F739927848F98
:10209000A689B7892C93A089B1898C9180648C938F
:1020A000938D848D981306C00288F389E02D80817A
:1020B0008F7D80830895EF92FF920F931F93CF93AC
:1020C000DF93EC0181E0888F9B8D8C8D981305C088
:1020D000E889F989808185FD24C0F62E0B8D10E0FA
:1020E0000F5F1F4F0F731127E02E8C8DE8120CC06D
:1020F0000FB607FCFACFE889F989808185FFF5CF13
:10210000CE010E943A10F1CF8B8DFE01E80FF11D38
:10211000E35AFF4FF0820B8FEA89FB89808180624E
:1021200007C0EE89FF896083E889F989808180642E
:10213000808381E090E0DF91CF911F910F91FF901C
:10214000EF900895CF93DF93EC01888D8823C9F039
:10215000EA89FB89808185FD05C0A889B9898C91B0
:1021600086FD0FC00FB607FCF5CF808185FFF2CF4B
:10217000A889B9898C9185FFEDCFCE010E943A10D4
:10218000E7CFDF91CF91089580E090E0892B29F08F
:102190000E94301081110C94000008950E94901B41
:1021A000E4EAF2E09091E3019183828366832583E0
:1021B00047708481807E482B4483CF010895E6EEEA
:1021C000F1E0A089B18982E08C93A485B5851C9249
:1021D000A685B78580E18C93108EA489B58986E0A9
:1021E0008C93A289B3898C9180618C93A289B389E5
:1021F0008C9188608C93A289B3898C9180688C9330
:102200000288F389E02D80818F7D8083089590E09E
:10221000FC01EF59F94F2491FC01E35BF94F8491E4
:10222000882399F090E0880F991FFC01ED5BF94F2E
:10223000A591B491FC01E75CF94F859194918FB71A
:10224000F894EC91E22BEC938FBF08950F931F93BA
:10225000CF93DF93EC018C8182958695877091F402
:102260004B8146954695469550E0BE01695F7F4F8C
:1022700080EB91E00E94951BEB81E695E695E69553
:10228000F0E077C0813031F48F814AE060EB71E09B
:1022900090E007C0823041F44AE060EB71E08F814A
:1022A00098850E94641568C0833041F44AE060EB71
:1022B00071E08F8198850E94BD155EC0843051F415
:1022C0006F81788589859A852AE040EB51E00E94EC
:1022D0006F1552C0853051F46F81788589859A8554
:1022E0002AE040EB51E00E949B1546C0873071F414
:1022F0002B85293008F028E06F81788589859A85BB
:1023000000EB11E042E00E94FF1436C08630A1F5D8
:1023100020E0EB81E695E695E6952E1738F5E22F5D
:10232000F0E0AF01440F551FDA01A055BE4FEC0F8E
:10233000FD1F8781082E000C990B34E09595879539
:102340003A95E1F78F708A3010F4805D01C0895CA6
:102350008C93DA01AF54BE4F87818F708A3010F4AE
:10236000805D01C0895C8C932F5FD3CFF0E0EE0FCE
:10237000FF1FE055FE4F108280EB91E0DF91CF917F
:102380001F910F910895009769F0FC0101900020C2
:10239000E9F73197AF01481B590BBC0186EE91E07C
:1023A0000C94C40F80E090E008958F929F92AF92BA
:1023B000BF920F931F93CF93DF93CDB7DEB7A19753
:1023C0000FB6F894DEBF0FBECDBF19A2423008F49D
:1023D0004AE08E010F5D1F4F842E912CA12CB12C51
:1023E000A50194010E94681BE62FB901CA010150A2
:1023F0001109EA3014F4E05D01C0E95CD801EC9306
:10240000232B242B252B61F7C8010E94C311A19611
:102410000FB6F894DEBF0FBECDBFDF91CF911F91F5
:102420000F91BF90AF909F908F900895FC01809185
:10243000E30181839481907F916094838091AF01C7
:1024400080FF03C0CF010C94060682E296E09F93C2
:102450008F930E94A3040F900F9080E0089590E066
:10246000FC01E25FF94F3491FC01EF59F94F2491DF
:10247000FC01E35BF94FE491EE2309F43BC0332305
:1024800039F1333091F038F43130A9F0323001F5C0
:1024900084B58F7D12C0373091F03830A1F03430E0
:1024A000B9F4809180008F7D03C0809180008F7788
:1024B000809380000DC084B58F7784BD09C0809162
:1024C000B0008F7703C08091B0008F7D8093B00003
:1024D000F0E0EE0FFF1FE75CF94FA591B4918FB7C5
:1024E000F894EC91611103C020952E2301C02E2B8E
:1024F0002C938FBF08958F929F92AF92BF92CF92ED
:10250000DF92EF92FF926B017C010E949E0F4B01C4
:102510005C01C114D104E104F104F1F00E949E0FAA
:10252000DC01CB0188199909AA09BB09883E9340AF
:10253000A105B10570F321E0C21AD108E108F10844
:1025400088EE880E83E0981EA11CB11CC114D10432
:10255000E104F10419F7DDCFFF90EF90DF90CF9009
:10256000BF90AF909F908F9008952FB7F89460918F
:10257000E7027091E8028091E9029091EA022FBF90
:102580000895CF92DF92EF92FF92CF93DF93D82FEF
:102590000E94B5126B017C0181E0D11180E0809333
:1025A000CA02C0E00E94B512AB01BC014C195D0922
:1025B0006E097F09403D57406105710580F4C111E6
:1025C0000EC0A8950E9454049091C9029770933050
:1025D00049F7C1E08091CA028D13E3CFE3CF8C2F7E
:1025E000DF91CF91FF90EF90DF90CF9008951F92F1
:1025F0000F920FB60F9211242F933F938F939F93B7
:10260000AF93BF938091E7029091E802A091E90215
:10261000B091EA023091E60223E0230F2D3720F437
:102620000196A11DB11D05C026E8230F0296A11D2C
:10263000B11D2093E6028093E7029093E802A093F5
:10264000E902B093EA028091EB029091EC02A09132
:10265000ED02B091EE020196A11DB11D8093EB0237
:102660009093EC02A093ED02B093EE02BF91AF9174
:102670009F918F913F912F910F900FBE0F901F90C0
:1026800018951F920F920FB60F9211242F933F931C
:102690004F935F936F937F938F939F93AF93BF936A
:1026A000EF93FF93E0912301F09124010995FF91AD
:1026B000EF91BF91AF919F918F917F916F915F91BA
:1026C0004F913F912F910F900FBE0F901F90189533
:1026D0001F920F920FB60F9211242F933F934F9397
:1026E0005F936F937F938F939F93AF93BF93EF937A
:1026F000FF93E0912101F09122010995FF91EF9163
:10270000BF91AF919F918F917F916F915F914F9109
:102710003F912F910F900FBE0F901F9018951F9211
:102720000F920FB60F9211242F933F934F935F9305
:102730006F937F938F939F93AF93BF93EF93FF9389
:1027400086EE91E00E943A10FF91EF91BF91AF9118
:102750009F918F917F916F915F914F913F912F91B9
:102760000F900FBE0F901F9018951F920F920FB6EB
:102770000F9211242F938F939F93EF93FF93E091E8
:10278000F601F091F7018081E091FC01F091FD01EB
:1027900082FD12C090818091FF018F5F8F73209125
:1027A0000002821751F0E091FF01F0E0EA51FE4F84
:1027B000958F8093FF0101C08081FF91EF919F91E0
:1027C0008F912F910F900FBE0F901F901895CF9360
:1027D000DF93FC011082118212821482158216820C
:1027E000DC0117968AE1ED0119928A95E9F782E0FA
:1027F0008383DF91CF910895789484B5826084BDFE
:1028000084B5816084BD85B5826085BD85B58160F4
:1028100085BD80916E00816080936E001092810072
:10282000809181008260809381008091810081602D
:1028300080938100809180008160809380008091EE
:10284000B10084608093B1008091B000816080937A
:10285000B00080917A00846080937A0080917A0041
:10286000826080937A0080917A00816080937A0000
:1028700080917A00806880937A001092C100A895B8
:1028800080E090E0892B11F00E9400000E94DF1090
:1028900088E993E09F938F930E94A3048091AF01F6
:1028A0008D7F8093AF010F900F9080E090E0892B97
:1028B00051F08BE893E09F938F930E94A3040E94B2
:1028C00000000F900F9041E050E063E071E08EEA6D
:1028D00091E00E94F71A6FEF81E090E00E941F1BC9
:1028E0008091A8018F788093A80110929E01109288
:1028F0009D0189E191E00E94770481E696E0909342
:102900009C0180939B011F921F921F921F9286E54C
:1029100093E09F938F930E94A3040E94B5120F909F
:102920000F900F900F900F900F900E94B5120E9481
:102930005404A8958091A70182FFF7CF8EE793E01A
:102940009F938F930E94A3040E9472030F900F9095
:102950008091A70182FB882780F91F928F9386E6DA
:1029600093E09F938F930E94A304A8950F900F90DC
:102970000F900F90A8950E9454040E94C410FACFA3
:10298000E6EEF1E01382128288EE93E0A0E0B0E080
:1029900084839583A683B78389E291E091838083C2
:1029A00085EC90E09587848784EC90E09787868714
:1029B00080EC90E0918B808B81EC90E0938B828B0C
:1029C00082EC90E0958B848B86EC90E0978B868BE5
:1029D000118E128E138E148E85EC92E00E94E713F6
:1029E00084EA92E00E94E71383E892E00E94E713F2
:1029F000E3E8F2E081E0868382E085830895EF9248
:102A00000F931F93CF93DF93E80147FD02C034E09B
:102A100001C034E1E42F440FFF0BF7FF03C0F19531
:102A2000E195F109E32E022F2E2FAE010E94D5175A
:102A3000CE01DF91CF911F910F91EF900895FC018E
:102A400088279927E89421912032E9F3293010F062
:102A50002E30C8F32B3241F02D3239F4689404C083
:102A60000E949315820F911D219120532A30C0F3AB
:102A70001EF4909581959F4F08951F93FC0199270F
:102A80008827BC01E89411911032E9F3193010F055
:102A90001E30C8F31B3251F01D3249F4689406C051
:102AA0000E947E15610F711D811D911D11911053A2
:102AB0001A30B0F33EF490958095709561957F4FF4
:102AC0008F4F9F4F1F910895BB274A3031F49923B0
:102AD00022F4BDE2909581959F4F0C94BE15BB27C3
:102AE0002A3051F4992342F4BDE290958095709577
:102AF00061957F4F8F4F9F4F0C949C15592F482FF6
:102B0000372F262F660F771F881F991F660F771F95
:102B1000881F991F620F731F841F951F660F771FF1
:102B2000881F991F08957AE0979F902D879F802D89
:102B3000910D11240895BB27FA01A62F6217710584
:102B400081059105330B30FB66F0AA27660F771FCE
:102B5000881F991FAA1FA21710F0A21B6395385057
:102B6000A9F7A05DAA3308F0A95DA19336F7B111CA
:102B7000B1931082CA010C94511ABB27FB0155274F
:102B8000AA27880F991FAA1FA41710F0A41B8395CA
:102B90005051B9F7A05DAA3308F0A95DA193009741
:102BA00079F7B111B1931192CB010C94511AAEE0A7
:102BB000B0E0EDEDF5E10C943F1B8C01CA014EE055
:102BC0004C831A83098377FF02C060E070E8FB0141
:102BD0003197FE83ED83A901BC01CE0101960E94CD
:102BE00003164D815E8157FD0AC02F81388542173B
:102BF00053070CF49A01F801E20FF31F10822E968E
:102C0000E4E00C945B1BACE0B0E0E9E0F6E10C948E
:102C1000311B7C016B018A01FC01178216828381C2
:102C200081FFBDC1CE0101964C01F7019381F601F0
:102C300093FD859193FF81916F01882309F4ABC1C6
:102C4000853239F493FD859193FF81916F0185322F
:102C500029F4B70190E00E94611AE7CF512C312C82
:102C600020E02032A0F48B3269F030F4803259F049
:102C7000833269F420612CC08D3239F0803339F40D
:102C8000216026C02260246023C0286021C027FD67
:102C900027C030ED380F3A3078F426FF06C0FAE04E
:102CA0005F9E300D1124532E13C08AE0389E300DE4
:102CB0001124332E20620CC08E3221F426FD6BC10C
:102CC000206406C08C3611F4206802C0883641F4B6
:102CD000F60193FD859193FF81916F018111C1CF21
:102CE000982F9F7D9554933028F40C5F1F4FFFE37E
:102CF000F9830DC0833631F0833771F0833509F0E5
:102D00005BC022C0F801808189830E5F1F4F44247D
:102D10004394512C540115C03801F2E06F0E711C20
:102D2000F801A080B18026FF03C0652D70E002C0CD
:102D30006FEF7FEFC5012C870E94461A2C0183019B
:102D40002C852F77222E17C03801F2E06F0E711CF0
:102D5000F801A080B18026FF03C0652D70E002C09D
:102D60006FEF7FEFC5012C870E943B1A2C012C8549
:102D70002068222E830123FC1BC0832D90E048167F
:102D80005906B0F4B70180E290E00E94611A3A94CB
:102D9000F4CFF50127FC859127FE81915F01B701F2
:102DA00090E00E94611A31103A94F1E04F1A5108F4
:102DB0004114510471F7E5C0843611F0893639F5B4
:102DC000F80127FF07C060817181828193810C5FC8
:102DD0001F4F08C060817181072E000C880B990B72
:102DE0000E5F1F4F2F76722E97FF09C0909580952A
:102DF000709561957F4F8F4F9F4F2068722E2AE00C
:102E000030E0A4010E94991AA82EA81844C0853762
:102E100029F42F7EB22E2AE030E025C0F22FF97F70
:102E2000BF2E8F36C1F018F4883579F0B4C08037E2
:102E300019F0883721F0AFC02F2F2061B22EB4FED9
:102E40000DC08B2D8460B82E09C024FF0AC09F2FAF
:102E50009660B92E06C028E030E005C020E130E0E1
:102E600002C020E132E0F801B7FE07C06081718145
:102E7000828193810C5F1F4F06C06081718180E069
:102E800090E00E5F1F4FA4010E94991AA82EA81867
:102E9000FB2DFF777F2E76FE0BC0372D3E7FA514CE
:102EA00050F474FE0AC072FC08C0372D3E7E05C087
:102EB000BA2C372D03C0BA2C01C0B52C34FF0DC07D
:102EC000FE01EA0DF11D8081803311F4397E09C0C5
:102ED00032FF06C0B394B39404C0832F867809F000
:102EE000B39433FD13C030FF06C05A2CB31418F44A
:102EF000530C5B18B32CB31468F4B70180E290E074
:102F00003C870E94611AB3943C85F5CFB31410F44A
:102F10003B1801C0312C34FF12C0B70180E390E0B0
:102F20003C870E94611A3C8532FF17C031FD03C007
:102F300088E790E002C088E590E0B7010CC0832FDD
:102F4000867859F031FF02C08BE201C080E237FD84
:102F50008DE2B70190E00E94611AA51438F4B70120
:102F600080E390E00E94611A5A94F7CFAA94F4018A
:102F7000EA0DF11D8081B70190E00E94611AA11055
:102F8000F5CF332009F451CEB70180E290E00E94E2
:102F9000611A3A94F6CFF7018681978102C08FEFCC
:102FA0009FEF2C96E2E10C944D1B4F925F926F9233
:102FB0007F929F92AF92BF92CF92DF92EF92FF9259
:102FC0000F931F93CF93DF93CDB7DEB729970FB63B
:102FD000F894DEBF0FBECDBF6A01122FB02E2BE3D7
:102FE000201720F0FF24F394F00E02C0BCE3FB2E68
:102FF0000F2D27E0AE014F5F5F4F0E946319AC01B8
:103000008981982F9970913031F0E1FC06C0E0FE83
:1030100006C090E205C09DE203C09BE201C090E0C3
:10302000EE2DE07183FF3CC0911102C083E001C02E
:1030300084E0811718F4212F281B01C020E0E11142
:103040000BC0F601822F30E2882319F031938150B2
:10305000FBCFC20ED11C20E0992329F0D6019C930E
:10306000F60131966F01C6010396E2FE0AC03EE406
:10307000D6013C9341E411964C93119712963C93E0
:1030800006C03EE6F601308341E641833283FC010F
:10309000322F40E2332309F442C041933150FACF3A
:1030A00082FF44C0911102C083E001C084E0811717
:1030B00018F4212F281B01C020E0E1110BC0F601FC
:1030C000822F30E2882319F031938150FBCFC20E5A
:1030D000D11C20E0992329F0D6019C93F60131966A
:1030E0006F01C6010396E2FE0BC039E4D6013C93A2
:1030F0003EE411963C93119736E412963C9307C038
:1031000039E6F60130833EE6318336E63283FC0150
:10311000322F40E2332319F041933150FBCFFC01B1
:10312000E20FF11D10828EEF9FEFB7C0F1E0911119
:1031300001C0F0E06F2F70E01416150624F49A0118
:103140002F5F3F4F02C021E030E0260F371FBB202A
:1031500029F06B2D70E06F5F7F4F02C060E070E080
:10316000260F371F612F70E0261737071CF4121B3C
:10317000212F01C020E03E2D387159F4D601322FA5
:1031800060E2332319F06D933150FBCFC20ED11C96
:1031900020E0FF2331F0D6019C93B6016F5F7F4F93
:1031A0006B01E1110BC0F601922F30E3992319F066
:1031B00031939150FBCFC20ED11C20E09F2D940F74
:1031C0003A81782F7071A72E84FF03C0313309F440
:1031D0009150191624F4993018F098E001C091E04C
:1031E000E42F852F57FF02C0E0E080E06E2F782F9C
:1031F000E0E0F0E0AEE29A2E3A01691A71082A0185
:10320000461A570A0B2D10E01195019511096F3FD1
:103210008FEF780729F4D6019C92C60101966C01C4
:103220004617570784F0661677066CF47F01E40CA6
:10323000F51CA1E0B0E0AC0FBD1FEA0EFB1ED701EC
:103240001196BC9002C090E3B92E6150710931967D
:10325000C60101967C016017710724F0D601BC926B
:103260006C01D5CF6417750741F4363320F435333C
:1032700021F4A11002C081E3B82EF601B082F7015B
:10328000822F90E2882319F091938150FBCFF701B0
:10329000E20FF11D108280E090E029960FB6F894BD
:1032A000DEBF0FBECDBFDF91CF911F910F91FF9079
:1032B000EF90DF90CF90BF90AF909F907F906F90F6
:1032C0005F904F900895283008F027E03327DA0107
:1032D000990F311D87FD916000966105710539F4E4
:1032E00032602E5F3D9330E32A95E1F708959F3FCA
:1032F00030F080387105610509F03C5F3C5F3D931B
:10330000913008F08068911DDF93CF931F930F9346
:10331000FF92EF92192F987F9695E92F96959695A3
:10332000E90FFF27EE53FF4F99273327EE24FF24A1
:10333000A701E70105900894079428F4360FE71ECB
:10334000F81E491F511D660F771F881F991F06948D
:10335000A1F70590079428F4E70EF81E491F561FA1
:10336000C11D770F881F991F661F0694A1F705904E
:10337000079428F4F80E491F561FC71FD11D880F48
:10338000991F661F771F0694A1F70590079420F4F4
:10339000490F561FC71FD81F990F661F771F881F19
:1033A0000694A9F784911095177041F0D695C795AA
:1033B00057954795F794E7941A95C1F7E8E6F0E03A
:1033C00068941590159135916591959105907FE2DE
:1033D0007395E118F10A430B560BC90BD009C0F7DE
:1033E000E10CF11E431F561FC91FD01D7EF4703320
:1033F00011F48A95E6CFE894015030F0080F0AF4F2
:103400000027021708F4202F2395022F7A3328F083
:1034100079E37D932A95E9F710C07D932A9589F683
:10342000069497956795379517951794E118F10AC3
:10343000430B560BC90BD00998F023957E917395D9
:103440007A3308F070E37C932013B8F77E917061B3
:103450007D9330F0839571E37D9370E32A95E1F7D6
:103460001124EF90FF900F911F91CF91DF91992739
:1034700087FD90950895FC01059061507040011002
:10348000D8F7809590958E0F9F1F0895FC0161508D
:10349000704001900110D8F7809590958E0F9F1F76
:1034A0000895DC01FC01672F71917723E1F73297D2
:1034B00004C07C916D9370836291AE17BF07C8F30F
:1034C00008950F931F93CF93DF93FB01238121FD79
:1034D00003C08FEF9FEF28C022FF16C0468157819F
:1034E000248135814217530744F4A081B1819D01A5
:1034F0002F5F3F4F318320838C93268137812F5F4D
:103500003F4F3783268310C0EB01092F182F00840B
:10351000F185E02D0995892BE1F68E819F81019639
:103520009F838E83812F902FDF91CF911F910F91D9
:103530000895FA01AA27283051F1203181F1E89449
:103540006F936E7F6E5F7F4F8F4F9F4FAF4FB1E096
:103550003ED0B4E03CD0670F781F891F9A1FA11D91
:10356000680F791F8A1F911DA11D6A0F711D811D92
:10357000911DA11D20D009F468943F912AE0269F57
:1035800011243019305D3193DEF6CF010895462FB6
:103590004770405D4193B3E00FD0C9F7F6CF462F97
:1035A0004F70405D4A3318F0495D31FD4052419300
:1035B00002D0A9F7EACFB4E0A695979587957795BD
:1035C0006795BA95C9F700976105710508959B0144
:1035D000AC010A2E06945795479537952795BA95CD
:1035E000C9F7620F731F841F951FA01D0895DC018A
:1035F000CB01FC01F999FECF06C0F2BDE1BDF89AFE
:10360000319600B40D9241505040B8F70895F999A1
:10361000FECF92BD81BDF89A992780B50895DC014F
:10362000A40FB51F4150504048F0CB01840F951FA7
:103630002E910E94201B41505040D0F70895262F14
:10364000F999FECF92BD81BDF89A019700B4021698
:1036500039F01FBA20BD0FB6F894FA9AF99A0FBE46
:1036600008952F923F924F925F926F927F928F9226
:103670009F92AF92BF92CF92DF92EF92FF920F9301
:103680001F93CF93DF93CDB7DEB7CA1BDB0B0FB60B
:10369000F894DEBF0FBECDBF09942A8839884888C8
:1036A0005F846E847D848C849B84AA84B984C8845E
:1036B000DF80EE80FD800C811B81AA81B981CE0F55
:1036C000D11D0FB6F894DEBF0FBECDBFED0108953A
:1036D000A1E21A2EAA1BBB1BFD010DC0AA1FBB1F16
:1036E000EE1FFF1FA217B307E407F50720F0A21B88
:1036F000B30BE40BF50B661F771F881F991F1A94F5
:1037000069F760957095809590959B01AC01BD011E
:10371000CF010895EE0FFF1F0590F491E02D09945D
:1037200081E090E0F8940C94A41BFB01DC01415073
:10373000504048F001900D920020C9F701C01D9241
:0C37400041505040E0F70895F894FFCF8E
:10374C00FFFFFF00FCE1A8A83208F807D5077A07AD
:10375C004E073C07A5085B08FF8309CB080007D878
:10376C0006C30FC30F000000005B10C40FF30FA2C1
:10377C00102410021016104574617420696E69745F
:10378C0069616C2064752072656C616973203A20E4
:10379C00000D0A004F4B004E41434B002100322ECE
:1037AC00312E31004D7973656E736F72735F477292
:1037BC006F76655F52656C61795F41637475617496
:1037CC006F7200312E320045746174206475207262
:0A37DC00656C616973203A2000005B
:00000001FF
